:020000040800F2
:1000000000000220551C0008A91B0008AB1B0008BB
:10001000AD1B0008AF1B0008B11B0008000000006A
:10002000000000000000000000000000B31B0008FA
:10003000B51B000800000000B71B0008B91B000832
:10004000A51C0008A51C0008A51C0008A51C00088C
:10005000A51C0008A51C0008A51C0008A51C00087C
:10006000A51C0008A51C0008A51C0008A51C00086C
:10007000A51C0008A51C0008A51C0008A51C00085C
:10008000A51C0008A51C0008A51C0008A51C00084C
:10009000A51C0008A51C0008A51C0008A51C00083C
:1000A000A51C0008A51C0008A51C0008A51C00082C
:1000B000A51C0008A51C0008A51C0008A51C00081C
:1000C000A51C0008A51C0008A51C0008A51C00080C
:1000D000A51C0008691B0008A51C0008A51C000839
:1000E000A51C0008A51C0008A51C0008A51C0008EC
:1000F000A51C0008A51C0008A51C0008A51C0008DC
:10010000A51C0008A51C0008A51C0008A51C0008CB
:10011000A51C0008A51C0008A51C0008A51C0008BB
:10012000A51C0008A51C0008A51C0008A51C0008AB
:10013000A51C0008A51C0008A51C0008A51C00089B
:10014000A51C0008A51C0008A51C0008A51C00088B
:10015000A51C0008A51C0008A51C0008A51C00087B
:10016000A51C0008A51C0008A51C0008A51C00086B
:10017000A51C0008A51C0008A51C00080000000024
:08018000A51C0008A51C0008E5
:1001C00010B5054C237833B9044B13B10448AFF391
:1001D00000800123237010BD4C08002000000000A7
:1001E0002C36000808B5034B1BB103490348AFF395
:1001F000008008BD00000000500800202C360008D8
:1002000053B94AB9002908BF00281CBF4FF0FF317D
:100210004FF0FF3000F074B9ADF1080C6DE904CE79
:1002200000F006F8DDF804E0DDE9022304B07047D1
:100230002DE9F047089E0D4604468846002B4DD117
:100240008A42944668D9B2FA82F252B101FA02F3B4
:10025000C2F1200120FA01F10CFA02FC41EA030884
:1002600094404FEA1C45210CB8FBF5FE1FFA8CF7B1
:1002700005FB1E8341EA03430EFB07F199420BD9AC
:100280001CEB03030EF1FF3080F01E81994240F217
:100290001B81AEF1020E63445B1AA4B2B3FBF5F00E
:1002A00005FB103344EA034400FB07F7A7420AD9D1
:1002B0001CEB040400F1FF3380F00881A74240F2F8
:1002C000058164440238E41B40EA0E4000211EB15F
:1002D000D4400023C6E90043BDE8F0878B4208D92B
:1002E000002E00F0EE800021C6E900050846BDE8BA
:1002F000F087B3FA83F100294AD1AB4202D382429C
:1003000000F2F980841A65EB030301209846002E61
:10031000E2D0C6E90048DFE702B9FFDEB2FA82F2B6
:10032000002A40F09180A1EB0C054FEA1C471FFA10
:100330008CFE0121B5FBF7F307FB1350250C45EAB2
:1003400000450EFB03F0A84208D91CEB050503F19C
:10035000FF3802D2A84200F2CB8043462D1AA4B245
:10036000B5FBF7F007FB105544EA05440EFB00FE11
:10037000A64508D91CEB040400F1FF3502D2A645BE
:1003800000F2BB802846A4EB0E0440EA03409EE73F
:10039000C1F120078B4022FA07FC4CEA030C20FA3B
:1003A00007F405FA01F31C43FD404FEA1C4900FA2B
:1003B00001F3B5FBF9F8200C1FFA8CFE09FB185568
:1003C00040EA054508FB0EF0A84202FA01F20BD9FB
:1003D0001CEB050508F1FF3A80F08880A84240F246
:1003E0008580A8F1020865442D1AA4B2B5FBF9F086
:1003F00009FB105544EA054500FB0EFEAE4508D941
:100400001CEB050500F1FF346CD2AE456AD9023809
:10041000654440EA0840A0FB0294A5EB0E05A54206
:10042000C846A64656D353D05EB1B3EB080265EB7F
:100430000E0505FA07F722FA01F3CD401F43C6E97E
:1004400000750021BDE8F087C2F1200320FA03F116
:100450000CFA02FC25FA03F395400D434FEA1C47C2
:100460001FFA8CFEB3FBF7F107FB11302B0C43EAAC
:10047000004301FB0EF0984204FA02F408D91CEB89
:10048000030301F1FF382FD298422DD9023963447A
:100490001B1AADB2B3FBF7F007FB103345EA034577
:1004A00000FB0EF3AB4208D91CEB050500F1FF3849
:1004B00016D2AB4214D902386544ED1A40EA014124
:1004C00038E73146304607E78646E5E61846FAE65D
:1004D0004B45A9D2B9EB020864EB0C0E0138A3E737
:1004E0004046EAE7204694E74146D1E7D0467BE71D
:1004F000023B654432E7084609E76444023842E7B4
:10050000704700BF00000000000000000000000075
:1005100000000000000000000000000000000000DB
:1005200000000000000000000000000000000000CB
:1005300000000000000000000000000000000000BB
:1005400090F800F06DE9024520F007016FF0000C13
:1005500010F0070491F820F040F049804FF00004BB
:100560006FF00700D1E9002391F840F000F1080096
:1005700082FA4CF2A4FA8CF283FA4CF3A2FA8CF3CE
:100580004BBBD1E9022382FA4CF200F10800A4FA35
:100590008CF283FA4CF3A2FA8CF3E3B9D1E9042389
:1005A00082FA4CF200F10800A4FA8CF283FA4CF3C0
:1005B000A2FA8CF37BB9D1E9062301F1200182FA7A
:1005C0004CF200F10800A4FA8CF283FA4CF3A2FA80
:1005D0008CF3002BC6D0002A04BF04301A4612BA8E
:1005E000B2FA82F2FDE8024500EBD2007047D1E991
:1005F000002304F00305C4F100004FEAC50514F020
:10060000040F91F840F00CFA05F562EA05021CBFF0
:1006100063EA050362464FF00004A9E7000000000A
:1006200001F0FF01102A2BDB10F0070F08D010F8A3
:10063000013B013A8B422DD010F0070F42B3F6D1A7
:10064000F0B441EA012141EA014122F007047FF0C0
:1006500000070023F0E80256083C85EA010586EA17
:10066000010685FA47F5A3FA87F586FA47F6A5FA53
:1006700087F68EB9EED1F0BC01F0FF0102F007025F
:1006800032B110F8013B013A83EA010313B1F8D10A
:100690000020704701387047002D06BF35460338EB
:1006A000073815F0010F07D1013015F4807F02BF24
:1006B000013015F4C03F0130F0BC0138704700BF75
:1006C000844641EA000313F003036DD1403A41D35D
:1006D00051F8043B40F8043B51F8043B40F8043B1C
:1006E00051F8043B40F8043B51F8043B40F8043B0C
:1006F00051F8043B40F8043B51F8043B40F8043BFC
:1007000051F8043B40F8043B51F8043B40F8043BEB
:1007100051F8043B40F8043B51F8043B40F8043BDB
:1007200051F8043B40F8043B51F8043B40F8043BCB
:1007300051F8043B40F8043B51F8043B40F8043BBB
:1007400051F8043B40F8043B51F8043B40F8043BAB
:10075000403ABDD2303211D351F8043B40F8043B4B
:1007600051F8043B40F8043B51F8043B40F8043B8B
:1007700051F8043B40F8043B103AEDD20C3205D35B
:1007800051F8043B40F8043B043AF9D2043208D053
:10079000D2071CBF11F8013B00F8013B01D30B88C5
:1007A00003806046704700BF082A13D38B078DD0A3
:1007B00010F003038AD0C3F10403D21ADB071CBF75
:1007C00011F8013B00F8013B80D331F8023B20F8DF
:1007D000023B7BE7043AD9D3013A11F8013B00F818
:1007E000013BF9D20B7803704B7843708B788370A0
:1007F000604670477047000010B504460E4B1878ED
:100800004FF47A73B3FBF0F30C4A1068B0FBF3F0CB
:1008100000F09EF868B90F2C01D901200AE00022EF
:1008200021464FF0FF3000F04DF8054B1C600020D2
:1008300000E0012010BD00BF0000002008000020E3
:100840000400002008B5094B1A6842F400721A60CF
:100850001A6842F480621A60052000F021F80F2027
:10086000FFF7CAFFFFF7C6FF002008BD003C0240AB
:10087000034A1168034B1B780B441360704700BF99
:100880006808002000000020014B1868704700BF76
:1008900068080020014B1868000C7047002004E035
:1008A000074AD36823F4E0631B041B0C000200F426
:1008B000E060034343F0BF6343F40033D360704709
:1008C00000ED00E000B5194BDB68C3F30223C3F170
:1008D000070CBCF1040F28BF4FF0040C03F1040E09
:1008E000BEF1060F18D9033B4FF0FF3E0EFA0CFC89
:1008F00021EA0C0199400EFA03F322EA030319439B
:1009000000280BDB0901C9B200F1604000F561402D
:1009100080F800135DF804FB0023E5E700F00F000A
:100920000901C9B2024B1954F4E700BF00ED00E021
:1009300014ED00E0002807DB00F01F02400901234E
:100940009340024A42F82030704700BF00E100E0C7
:100950000138B0F1807F0BD24FF0E0235861054A97
:10096000F02182F823100020986107221A61704755
:100970000120704700ED00E070B50446866DFFF77A
:1009800083FF94F83530DBB2022B06D080236365F9
:10099000002384F83430012070BD054622681368B6
:1009A00023F0160313602268536923F08003536118
:1009B000236CE3B12268136823F0080313602268F4
:1009C000136823F00103136023681B6813F0010F01
:1009D00011D0FFF759FF431B052BF5D92023636581
:1009E000002384F83430032084F83500D4E7A36C66
:1009F000002BDFD1E3E7E26D3F239340B36000209B
:100A000084F83400012384F83530C5E790F8353098
:100A1000DBB2022B03D080234365012070470523FE
:100A200080F835300268136823F00103136000205A
:100A30007047000000230F2B00F2E48070B582B0F5
:100A400060E085685E000324B44025EA0405CC68B4
:100A5000B4402C438460456825EA02054C68C4F321
:100A600000129A402A4342605AE0DC08083450F8E9
:100A7000246003F0070295000F22AA4026EA020E26
:100A80000A69AA4042EA0E0240F824205CE00722EC
:100A900000E0002202FA0EF22A4302345A4D45F8D1
:100AA00024205A4A14686FEA0C0224EA0C054E68A6
:100AB00016F4803F01D04CEA0405544C256064686C
:100AC00002EA04054E6816F4003F01D04CEA040522
:100AD0004E4C6560A46802EA04054E6816F4801F57
:100AE00001D04CEA0405494CA560E46822404D68F9
:100AF00015F4001F01D04CEA0402444CE2600133BB
:100B00000F2B7DD801229A400C6804EA020C32EACD
:100B10000404F4D14C6804F00304013C012C90D986
:100B20004A6802F00302032A09D0C4685D00032268
:100B3000AA4024EA02048A68AA402243C2604A68A2
:100B400002F00302022A90D004684FEA430E032207
:100B500002FA0EF224EA02044A6802F0030202FAE0
:100B60000EF2224302604A6812F0805FC7D0002272
:100B70000192274A546C44F480445464526C02F449
:100B800080420192019A9C08A51C1F4A52F82550E8
:100B900003F003024FEA820E0F2202FA0EF225EA58
:100BA00002051C4A90423FF474AF02F58062904205
:100BB0001AD002F58062904218D002F5806290420D
:100BC00016D002F58062904214D002F58062904205
:100BD00012D002F58062904210D002F580629042FD
:100BE0003FF455AF082255E7012253E7022251E7AF
:100BF00003224FE704224DE705224BE7062249E78F
:100C000002B070BD704700BF00380140003C014099
:100C10000038024000000240002800F0E08170B57A
:100C200082B00446036813F0010F3BD09F4B9B68D2
:100C300003F00C03042B2CD09C4B9B6803F00C039B
:100C4000082B21D06368B3F5803F4FD0B3F5A02FB8
:100C500052D0964B1A6822F480321A601A6822F435
:100C600080221A606368002B50D0FFF70DFE054606
:100C70008E4B1B6813F4003F14D1FFF705FE401B99
:100C80006428F5D90320B1E1884B5B6813F4800F29
:100C9000D8D0864B1B6813F4003F03D06368002B49
:100CA00000F09F81236813F0020F54D07F4B9B68A4
:100CB00013F00C0F3ED07D4B9B6803F00C03082B08
:100CC00033D0E368002B68D0794B01221A60FFF71C
:100CD000DBFD0546754B1B6813F0020F54D1FFF77F
:100CE000D3FD401B0228F5D903207FE16F4A13682A
:100CF00043F480331360B5E76C4B1A6842F48022EA
:100D00001A601A6842F480321A60ABE7FFF7BCFD44
:100D10000546664B1B6813F4003FC3D0FFF7B4FDD4
:100D2000401B6428F5D9032060E1604B5B6813F435
:100D3000800FC6D15D4B1B6813F0020F03D0E36830
:100D4000012B40F05081594A136823F0F8032169C0
:100D500043EAC1031360236813F0080F42D06369AC
:100D60006BB3534B0122C3F8802EFFF78DFD054670
:100D70004E4B5B6F13F0020F34D1FFF785FD401B24
:100D80000228F5D9032031E1484A136823F0F8031B
:100D9000216943EAC1031360DDE7454B00221A6075
:100DA000FFF772FD0546414B1B6813F0020FD2D0CE
:100DB000FFF76AFD401B0228F5D9032016E13C4BE2
:100DC0000022C3F8802EFFF75FFD0546374B5B6FAF
:100DD00013F0020F06D0FFF757FD401B0228F5D98C
:100DE000032003E1236813F0040F77D02F4B1B6C13
:100DF00013F0805F33D1002301932C4B1A6C42F027
:100E000080521A641B6C03F080530193019B0125EF
:100E1000284B1B6813F4807F23D0A368012B34D0A8
:100E2000052B38D0214B1A6F22F001021A671A6F76
:100E300022F004021A67A368002B3DD0FFF724FDBF
:100E400006461A4B1B6F13F0020F46D1FFF71CFD2D
:100E5000801B41F288339842F3D90320C6E0002575
:100E6000D6E7144A136843F480731360FFF70CFD50
:100E70000646104B1B6813F4807FCED1FFF704FDAC
:100E8000801B0228F5D90320B0E0084A136F43F015
:100E900001031367CFE7054B1A6F42F004021A678C
:100EA0001A6F42F001021A67C5E700BF003802401E
:100EB0000000474200700040FFF7E6FC0646524B38
:100EC0001B6F13F0020F08D0FFF7DEFC801B41F20E
:100ED00088339842F3D9032088E0EDB9A369002B49
:100EE00000F08380484A926802F00C02082A51D030
:100EF000022B17D0454B00221A66FFF7C5FC0446AB
:100F0000414B1B6813F0007F42D0FFF7BDFC001B74
:100F10000228F5D9032069E03B4A136C23F0805383
:100F20001364DBE7394B00221A66FFF7ADFC054678
:100F3000354B1B6813F0007F06D0FFF7A5FC401B64
:100F40000228F5D9032051E0E369226A1343626A5B
:100F500043EA8213A26A5208013A43EA0243E26A70
:100F600043EA0263284A5360284B01221A66FFF7BE
:100F70008BFC0446244B1B6813F0007F06D1FFF75F
:100F800083FC001B0228F5D903202FE000202DE070
:100F900000202BE0012B2BD01B4B5B6803F480015E
:100FA000E269914226D103F03F02216A8A4223D1AD
:100FB000616A47F6C0721A40B2EB811F1ED103F47A
:100FC0004031A26A5208013AB1EB024F18D103F046
:100FD0007063E26AB3EB026F14D1002006E00120D7
:100FE0007047012002E0012000E0002002B070BD47
:100FF0000120FBE70120F9E70120F7E70120F5E7F1
:101000000120F3E70120F1E70038024000004742E9
:1010100008B5254B9B6803F00C03042B3FD0082B2D
:101020003FD1214B5A6802F03F025B6813F4800FF6
:1010300012D01D4B5968C1F388111C480023A1FB35
:101040000001FFF7DDF8184B5B68C3F30143013380
:101050005B00B0FBF3F025E0134B5968C1F3881C2B
:101060004FEA4C11B1EB0C006EEB0E0E4FEA8E13F3
:1010700043EA90638101091A63EB0E03DB0043EA44
:101080005173C90011EB0C0C43F1000399020023CA
:101090004FEA8C2041EA9C51FFF7B2F8D3E70348AE
:1010A00000E0034808BD00BF0038024040787D01E1
:1010B0000024F400002800F09B8070B50D46044623
:1010C0004F4B1B6803F007038B4208D2CBB24C4A4C
:1010D0001370136803F007038B4240F08B80236882
:1010E00013F0020F17D013F0040F04D0454A936891
:1010F00043F4E0539360236813F0080F04D0414A8F
:10110000936843F4604393603E4A936823F0F0038E
:10111000A1680B439360236813F0010F32D063681A
:10112000012B21D09A1E012A25D9364A126812F0C5
:10113000020F61D033498A6822F0030213438B60A7
:10114000FFF7A2FB06462F4B9B6803F00C03626877
:10115000B3EB820F16D0FFF797FB801B41F2883369
:101160009842F0D9032042E0264A126812F4003F68
:10117000E0D101203BE0234A126812F0007FD9D170
:10118000012034E01E4B1B6803F00703AB4207D974
:10119000EAB21B4B1A701B6803F00703AB422DD158
:1011A000236813F0040F06D0164A936823F4E05323
:1011B000E1680B439360236813F0080F07D0114ACE
:1011C000936823F46043216943EAC1039360FFF706
:1011D0001FFF0C4B9B68C3F303130B4AD35CD8402F
:1011E0000A4B18600A4B1868FFF706FB002070BD19
:1011F000012070470120FAE70120F8E70120F6E717
:10120000003C0240003802404C3600080800002034
:1012100004000020014B1868704700BF0800002040
:1012200008B5FFF7F7FF044B9B68C3F38223034A1B
:10123000D35CD84008BD00BF003802405C360008CF
:1012400008B5FFF7E7FF044B9B68C3F34233034A3B
:10125000D35CD84008BD00BF003802405C360008AF
:101260000268D36823F49073D3600268536923F053
:1012700001035361036B012B05D0202380F83E301E
:101280000023036370470268D36823F01003D36020
:10129000F3E790F83D30DBB2212B01D002207047FC
:1012A0008368B3F5805F17D0036A5A1C02621A780C
:1012B00003685A60C38C9BB2013B9BB2C3844BB999
:1012C0000268D36823F08003D3600268D36843F0D8
:1012D0004003D360002070470369002BE4D1036A08
:1012E0001B880268C3F308035360036A0233036276
:1012F000E0E7000038B504460268136923F4405360
:10130000C1680B4313618368026913434269134345
:10131000C2691A430168CB6823F4164323F00C0317
:101320001343CB600268536923F4407381690B4314
:1013300053610368314A934206D002F580629342BA
:1013400002D0FFF76DFF01E0FFF77AFFE369B3F525
:10135000004F29D00021031849411B1841F1000119
:10136000C90041EA5371DB00181863684FEA830231
:101370004FEA937341F10001FEF742FF204DA5FBB8
:1013800000325109642303FB11031B013233A5FB17
:1013900003235B0903F0F00202EB011203F00F03D9
:1013A000216813448B6038BD0023021843EB03010E
:1013B000121841F10001C90041EA5271D20010181F
:1013C00041F10001626892185B41FEF719FF0C4D74
:1013D000A5FB00325109642303FB1103DB00323308
:1013E000A5FB03235B095A0002F4F87202EB011219
:1013F00003F00703216813448B60D4E70010014019
:101400001F85EB512DE9F84305460F4616469946D0
:10141000DDF820802C68246837EA04030CBF4FF005
:10142000010C4FF0000CB4451FD1B8F1FF3FF1D0D3
:10143000B8F1000F05D0FFF727FAA0EB09004045EF
:10144000E8D92A68D36823F4D073D3602A68536933
:1014500023F001035361202385F83D3085F83E30A9
:10146000002385F83C30032000E00020BDE8F8832D
:1014700058B310B5044690F83D300BB3242384F8DC
:101480003D302268D36823F40053D3602046FFF731
:1014900031FF2268136923F4904313612268536972
:1014A00023F02A0353612268D36843F40053D360C6
:1014B00000202064202384F83D3084F83E3010BDA5
:1014C00080F83C3000F0B4FAD8E7012070472DE9ED
:1014D000F04182B01E4690F83D30DBB2202B54D153
:1014E00004460D469046002953D0002A53D090F868
:1014F0003C30012B51D0012380F83C3000230364A1
:10150000212380F83D30FFF7BFF90746A4F8248077
:10151000A4F82680A368B3F5805F05D04FF00008DB
:10152000002384F83C3012E0236913B14FF0000827
:10153000F6E7A8460025F3E738F8023B2268C3F334
:1015400008035360E28C92B2013A92B2E284E38CD7
:101550009BB273B100963B46002280212046FFF7E4
:1015600051FFE0B9002DE7D015F8012B23685A6030
:10157000E8E700963B46002240212046FFF742FF65
:1015800078B9202384F83D3000E0022002B0BDE8A5
:10159000F0810120FAE70120F8E70220F6E70320B6
:1015A000F4E70320F2E7704708B50168CA6822F043
:1015B0004002CA60202280F83D20FFF7F4FF00209F
:1015C00008BD704708B5806B0023C385C384FFF74F
:1015D000F8FF08BD704790F83E30DBB2222B53D1A4
:1015E00010B504468368B3F5805F30D0A26AB3F5C6
:1015F000805F04D0002B37D12369002B34D12368BE
:101600005B681370A36A0133A362E38D9BB2013B55
:101610009BB2E385002B39D12268D36823F02003E5
:10162000D3602268D36823F48073D360226853693F
:1016300023F001035361202384F83E30236B012BF8
:1016400018D0204600F042FA0020206310BD026945
:10165000002ACBD1826A03685B68C3F30803138056
:10166000836A02338362D0E723685B6803F07F03F9
:101670001370C7E72268D36823F01003D360A18DED
:101680002046FFF7A7FFDFE7022070470020DDE7D5
:1016900030B583B0044602681368D068516913F00E
:1016A0000F0505D113F0200F02D010F0200F19D133
:1016B0002DB111F0010119D110F4907F16D1216BD9
:1016C000012975D013F0800F03D010F0800F40F087
:1016D000D88013F0400F03D010F0400F40F0D580B9
:1016E00003B030BD2046FFF776FFF9E713F0010F96
:1016F00006D010F4807F03D0226C42F001022264F5
:1017000013F0040F04D019B1226C42F002022264DB
:1017100013F0020F04D019B1226C42F004022264CB
:1017200013F0080F07D010F0200F00D119B1226C70
:1017300042F008022264226C002AD1D013F0200F5C
:1017400002D010F0200F21D123685B6903F0400321
:10175000226C12F0080F00D123B32046FFF780FD62
:1017600023685A6912F0400F18D05A6922F04002DB
:101770005A61A36B73B1474A1A65A06BFFF746F92C
:101780000028ADD0A06B036D9847A9E72046FFF76E
:1017900022FFD9E72046FFF714FFA1E72046FFF715
:1017A00010FF9DE72046FFF70CFF0023236497E717
:1017B00013F0100F86D010F0100F83D00023019388
:1017C0001368019353680193019B536913F0400F11
:1017D00033D0A16B0B685B689BB2002B80D0A08DCF
:1017E00098427FF67DAFE385CB69B3F5807F08D162
:1017F000A18DE38D9BB2C91A89B22046FFF7EAFE9C
:101800006EE7D36823F48073D3602268536923F0B2
:10181000010353612268536923F04003536120237D
:1018200084F83E30002323632268D36823F010033A
:10183000D360A06BFFF7A0F8DAE7A18DE38D9BB230
:10184000C91A89B2E38D9BB2002B3FF449AF00293E
:101850003FF446AFD36823F49073D3602268536992
:1018600023F001035361202384F83E3000232363D7
:101870002268D36823F01003D3602046FFF7AAFE46
:101880002EE72046FFF705FD2AE72046FFF78CFEEE
:1018900026E700BFC5150008034681628285C28520
:1018A00000201864222283F83E2083F83C00196847
:1018B000CA6842F48072CA6019684A6942F001023B
:1018C0004A611A68D36843F02003D360704708B5B3
:1018D00090F83E30DBB2202B0DD171B17AB190F887
:1018E0003C30012B0DD0012380F83C3000230363F2
:1018F000FFF7D2FF00E0022008BD0120FCE7012035
:10190000FAE70220F8E70000014B1860704700BFBB
:101910006C0800202DE9F04194B080460F46164631
:101920001D463022002108A800F0E8F900240394A5
:1019300004940594069407940194264B1A6C42F083
:1019400080521A641B6C03F080530193019B029434
:10195000214B1A6842F480421A601B6803F48043EA
:101960000293029B012308934FF4803309930223CF
:101970000E934FF480030F93CDF844801097129686
:10198000139508A8FFF748F920B10124204614B0A8
:10199000BDE8F0810F2303930223049305944FF4D1
:1019A000A05306934FF480530793052103A8FFF734
:1019B00081FB044608B10124E8E7FEF76BFF41F222
:1019C00001039842E2D1054A136843F4807313601F
:1019D000DCE700BF0038024000700040003C0240DD
:1019E000044B1B6813F0400FFAD0C2B2014B5A608F
:1019F000704700BF0010014010B50A4C0A4B23602D
:101A000060600023A360E3602361A3610C23636132
:101A10002046FFF72DFD012204492046FFF757FF1E
:101A200010BD00BF740800200010014070080020A5
:101A30000268244B9A4200D0704730B589B000222A
:101A4000009203F59433596C41F010015964596CBC
:101A500001F01001009100990192196B41F0010110
:101A60001963196B01F001010191019902921A6B3E
:101A700042F001021A631B6B03F001030293029B05
:101A80004FF40073039302230493012205920693FB
:101A9000072507950C4C03A92046FEF7CBFF4FF412
:101AA00080630393079503A92046FEF7C3FF252013
:101AB000FEF740FF032211462520FEF703FF09B081
:101AC00030BD00BF001001400000024038B5026880
:101AD000204B9A4200D038BD1F4A1388B2F900202B
:101AE000002A09DB13F4804F1CD01C4A12780A2A02
:101AF00011D0194B00221A80184D194C0122294689
:101B00002046FFF7E4FE4FF6FF73012229462046E8
:101B1000FFF7DDFCDFE76FEA43436FEA53430E4A0A
:101B20001380E9E70D4A12780D2A0DD0C3F30D0199
:101B30000C48425401339BB2074A1380C72BDBD9B0
:101B4000134600221A80D7E743F48043024A1380E9
:101B5000D2E700BF0010014080090020700800207B
:101B600074080020B808002008B50248FFF790FD6F
:101B700008BD00BF7408002008B5FEF763FE04230B
:101B8000022219214FF4B770FFF7C4FEA820FFF717
:101B9000BBFE4FF4E130FFF72FFF024800F04EF993
:101BA000FEE700BF443600087047FEE7FEE7FEE7A9
:101BB000FEE770477047704708B5FEF759FE08BD4D
:101BC00070B50C461646002506E0AFF300802146AE
:101BD00001F8010B01350C46B542F6DB304670BD0D
:101BE00070B50C461646002504E014F8010BFFF70B
:101BF000F7FE0135B542F8DB304670BD08B5034647
:101C00000B4A126842B10A4A106803446A4693427A
:101C100006D8074A136008BD054A06491160F2E775
:101C200000F042F80C2303604FF0FF30F3E700BFF1
:101C300084090020D00900204FF0FF3070474FF496
:101C400000534B6000207047012070470020704710
:101C500070470000DFF834D00D480E490E4A0023CB
:101C600002E0D458C4500433C4188C42F9D30B4A50
:101C70000B4C002301E013600432A242FBD3FFF7B8
:101C8000E7FF00F017F8FFF777FF7047000002202A
:101C9000000000204C080020803600084C0800207E
:101CA000D0090020FEE70000014B1868704700BF14
:101CB0000C00002070B50D4E0D4D761BB61006D0F1
:101CC000002455F8043B01349847A642F9D1094E47
:101CD000094D761B01F0AAFCB61006D0002455F879
:101CE000043B01349847A642F9D170BD7436000810
:101CF000743600087C36000874360008830730B557
:101D000048D0541E002A3FD0CAB2034601E0013C2D
:101D10003AD303F8012B9D07F9D1032C2DD9CDB26D
:101D200045EA05250F2C45EA054536D9A4F11002F0
:101D300022F00F0C03F1200EE6444FEA121C03F1CF
:101D4000100242E9045542E9025510327245F8D1B9
:101D50000CF1010214F00C0F03EB021204F00F0C53
:101D600013D0ACF1040323F003030433134442F80B
:101D7000045B9342FBD10CF003042CB1CAB21C44A7
:101D800003F8012B9C42FBD130BD64461346002C66
:101D9000F4D1F9E703461446BFE71A46A446E0E744
:101DA00070B5054688B008460C46FEF7C9FB224EC2
:101DB000AA6B059001214318CDE9066104A8022110
:101DC00004940393AC680190029122B3636E13F004
:101DD000010FB4F90C309AB201D1980525D59104C0
:101DE00006D4626E43F4005322F40052A38162666B
:101DF000284601AA214600F0E7F8636E002814BFC8
:101E00004FF0FF350A25DA0702D4A3899B0506D5D2
:101E1000284608B070BD284600F02EF8D6E7A06D21
:101E200000F070FA284608B070BDA06D00F068FAA6
:101E3000B4F90C309AB2D2E768360008024B01467A
:101E40001868FFF7ADBF00BF0C000020024B13B1B4
:101E5000024800F005B87047000000009D1F000810
:101E6000002301461A46184601F04AB8014900F01D
:101E70001FBA00BFB12F00082DE9F047824639484C
:101E800000F03EFADAF83840002C66D1DAF8045057
:101E9000354ACAF83C200323CAE9B843DFF8CC909E
:101EA000DFF8CC80334F344E04230AF53B72CAF876
:101EB000E8222146C5E90243C5E90044C5E90444D6
:101EC0006C660822AC6105F15C00FFF717FFC5E9FD
:101ED0000759C5E90987EE6205F1580000F00CFAD0
:101EE000DAF80850254BEB602146C5E90044C5E906
:101EF00004446C66AC60AC61082205F15C00FFF73D
:101F0000FDFEC5E90759C5E90987EE6205F15800EC
:101F100000F0F2F9DAF80C50194BEB602146C5E9F4
:101F20000044C5E904446C66AC60AC61082205F16C
:101F30005C00FFF7E3FE05F15800C5E90759C5E964
:101F40000A76C5F8248000F0D7F90123CAF83830A2
:101F50000448BDE8F04700F0D5B9BDE8F0470148B6
:101F600000F0D0B9940900206D1E0008752D0008FE
:101F7000992D0008D92D0008F92D0008090001004D
:101F800012000200014800F0BBB900BF9009002018
:101F9000014800F0B7B900BF9009002038B5084BE0
:101FA000084D5B1B9C1007D0043B1D44013C55F8B9
:101FB00004399847002CF9D1BDE8384001F03CBB0A
:101FC000803600087C3600089368002B00F0818082
:101FD0002DE9F04FB1F90C300C461907804683B05B
:101FE000174698B223D523690BB310F002033D685E
:101FF0002BD04FF0000ADFF8B4B256465E453346A8
:10200000524628BF5B464046002E4FD0E169D4F8C7
:1020100024C0E047002852DDBB681B1A8244361AF0
:10202000BB60002BEAD1002003B0BDE8F08F214651
:10203000404600F0FBFE002840F03481B4F90C303B
:102040003D6898B210F00203D3D110F0010942D1DB
:102050004E463EB38205D4F808B040F18180B345C6
:102060005A4600F2B18010F4906F40F0BE802068B4
:102070000192494600F0F8FBA3682168019AA3EB9E
:102080000B030A44B246A36022600026B868A0EBA6
:102090000A00D144B8600028C5D0B4F90C0080B261
:1020A000002ED7D1D5E900960835D2E7D5E900A6AC
:1020B0000835A3E72146404601F070F880B3B4F933
:1020C0000C3043F040034FF0FF30A38103B0BDE874
:1020D000F08F002070471E46AA46994618461D46B6
:1020E00056B388B34A46D4E904132068B24228BFE5
:1020F0003246884205D9A16803EB010B5A4500F32B
:10210000A780934264DCE169D4F824C02A464046A3
:10211000E047B0F1000BD2DDB9EB0B09CAD00120CA
:10212000BB68A3EB0B035D44A6EB0B06BB60002B67
:102130003FF479AF002ED4D10AF1080353E90256D7
:102140009A460833002EF9D032460A212846FEF777
:1021500067FA002800F09D800130A0EB0509C1E777
:1021600020682369984217D86369B34214D86FF086
:102170000042B24228BF3246E16992FBF3F2D4F842
:1021800024C002FB03F340464A46E047B0F1000A90
:1021900095DDA6EB0A0679E7B345DA4628BFB246D5
:1021A0005246494600F060FBA3682268A3EB0A038D
:1021B0005244A3602260002BEBD12146404600F040
:1021C000EDFF0028E5D07AE72068B34632464FE7B6
:1021D0002946019200F048FB019AA3689B1AA3606C
:1021E000236813442360934696E723682169A3EB91
:1021F000010B636903EB430A0AEBDA7A0BF1010383
:102200004FEA6A0A33445345524684BF9A465246BF
:1022100043052CD51146404600F076F800283BD007
:102220005A4621690190FEF74BFAA289019B22F4DC
:10223000906242F08002A28103EB0B002361AAEBC3
:102240000B03C4F814A0A3602060B34632460FE726
:1022500029465A4600F008FB23685B442360214668
:10226000404600F09BFF00283FF456AF27E740466A
:1022700000F082FB03460028DED12169404601F0D0
:102280000BF8B4F90C300C2223F08003C8F80020BE
:1022900017E7721C914626E70C22B4F90C30C8F8F7
:1022A00000200EE74FF0FF30BEE600BF00FCFF7FCE
:1022B0002DE9F8430746884600F538764FF00009C7
:1022C000D6E90154013D11D4A389012B05F1FF3555
:1022D00008D9B4F90E300133214603D03846C0473F
:1022E00049EA00096B1C04F16804EDD13668002E40
:1022F000E6D14846BDE8F883704700BF704700BF8D
:10230000704700BF704700BF2DE9F04F01F10B0689
:10231000162E83B0044624D8102900F2BA8000F0AB
:102320001FFB102618220220B54F3A44A2F10801E3
:1023300053688B4200F0BA805A68D96822F00302D1
:102340001A449D68E9608D60516841F001012046A2
:10235000516003F1080500F009FB284603B0BDE811
:10236000F08F36F0070600F19480B14200F29180C0
:1023700000F0F6FAB6F5FC7FC0F09A81730A00F01F
:102380008F80042B00F26F81B30903F1390003F150
:10239000380CC3009A4F3B44A3F108055B689D428B
:1023A00006D10CE0002980F22781DB689D4206D02F
:1023B0005A6822F00302911B0F29F3DD60463D6944
:1023C000DFF840C265457CD06A6822F00302931BA7
:1023D0000F2B00F37B81002BC7E904CC80F26C81CA
:1023E000B2F5007F80F01A81D308796801334FEA93
:1023F000521E012202FA0EF20A4357F833E0C5F8E2
:1024000008E007EBC3010839E9607A6047F8335008
:10241000CEF80C50831001219940914257D81142B7
:1024200006D120F003004900114200F10400FAD067
:1024300007EBC0094D468646D5F80C80454508D1C6
:102440001DE1002B80F22481D8F80C80454500F076
:102450001681D8F8042022F00302931B0F2BF0DD25
:102460002046D8E9025408EB060146F00106C8F8F8
:102470000460EC60A56043F00104C7E90411C1E900
:1024800002CC4C6048F8023000F070FA08F1080500
:1024900002E00C2323600025284603B0BDE8F08F3E
:1024A0004FF4007340204FF03F0C73E7D3689A421B
:1024B00008BF02307FF440AF3D69DFF848C1654591
:1024C00082D17A688310012199409142A7D9BD68D1
:1024D0006B6823F003094E4503D8A9EB06030F2BC5
:1024E0007ADCDFF824B1494BDBF800201B680132AD
:1024F000334405EB090A00F0338103F580530F33B1
:1025000023F47F6828F00F084146204600F020FCA5
:10251000411C024600F0F380824500F2EE803C4B05
:10252000196841441960084600F04E81DBF800103C
:10253000019301311BBFA2EB0A0A5044CBF80020E3
:10254000186012F0070B00F01781CBF108010A4464
:10255000CBF5805190440831A1EB0801C1F30B0A7F
:1025600051462046009200F0F3FB421CDDE90023B7
:1025700000F04F81801A00EB0A081968BA6048F031
:1025800001005144BD425060196000F02981B9F149
:102590000F0F40F227816868A9F10C0C2CF0070C92
:1025A00000F0010040EA0C0068604FF0050E05EBFA
:1025B0000C00BCF10F0FC0E901EE00F2328150684F
:1025C0001546144B1A688A4238BF1960124B1A68B4
:1025D0008A4238BF196094E0AA1943F0010346F01B
:1025E00001066E602046BA60536000F0BFF90835FE
:1025F000284603B0BDE8F08FD9681A44A1E600BFB1
:102600003C0400204404002044080020C8090020A5
:1026100098090020C0090020C4090020B2F5206FED
:102620004FEA522363D3142B00F2B78003F15C010D
:10263000C9005B3307EB010E7958AEF1080E8E45E9
:1026400000F091804B6823F00303934202D989681C
:102650008E45F7D1D1F80CE07A68C5E9021ECEF8B4
:102660000850CD60D6E6142B59D9542B00F29D802A
:10267000330B03F16F0003F16E0CC3008AE60EF119
:10268000010E1EF0030F05F108057FF4D5AE51E0F1
:10269000424445465368D8F80C1043F00103536098
:1026A00055F8083F2046D9608B6000F05FF9F3E6EB
:1026B000F00806F1080237E62A442046536843F042
:1026C00001035360083500F051F9E5E6A9192046E9
:1026D00046F0010643F001046E60C7E90411C1E948
:1026E00002CC4C60AB5000F041F90835D4E69309B8
:1026F00003F13901C90038339CE7BD425FD0BD68A2
:10270000686820F003084645A8EB060302D80F2BA3
:102710003FF762AF204600F029F90025BCE603F13F
:102720005C0003F15B0CC30034E659F808394B45F3
:1027300040F0968010F0030F00F1FF30F5D17B6878
:1027400023EA01037B60490099423FF6C0AE19B904
:10275000BDE649000EF1040E1942FAD0704667E654
:1027600003F11008D0E69A104FF001087B6808FAD0
:1027700002F21A437A6070E702EB08014942C1F3A2
:102780000B0A51462046009200F0E2FA431CDDE9B4
:1027900000237FF4EFAEDA46EFE6542B25D8130B77
:1027A00003F16F01C9006E3344E7B3F5AA7F25D862
:1027B000F30B03F1780003F1770CC300EAE5294B32
:1027C000186840441860B1E6CAF30B0CBCF1000F66
:1027D0007FF4ACAEBD68C84448F001006860F0E624
:1027E0001546EEE60123536094E7B3F5AA7F23D89C
:1027F000D30B03F17801C90077331BE740F2545241
:10280000934223D8B30C03F17D0003F17C0CC30089
:10281000C0E5ABF1080BD844A8EB02084FF0000A62
:10282000ABE605F108012046009300F035FDBD68D8
:10283000009B68681968C4E640F254518B420BD87B
:10284000930C03F17D01C9007C33F3E64FF47E73F2
:102850007F204FF07E0C9DE54FF47E717E23E9E6EC
:102860007B6870E79809002088420DD98B18834255
:102870000AD900EB020CBAB1624613F801CD02F896
:1028800001CD9942F9D170470F2A0ED8034602F1C3
:10289000FF3C4AB10CF1010C013B8C4411F8012BB7
:1028A00003F8012F6145F9D1704740EA01039B0706
:1028B00050D1A2F1100370B501F1200C23F00F05E7
:1028C00001F1100E00F11004AC441B095EF8105C1D
:1028D00044F8105C5EF80C5C44F80C5C5EF8085C34
:1028E00044F8085C5EF8045C44F8045C0EF1100ED9
:1028F000E64504F11004E9D1013312F00C0F01EBAD
:10290000031102F00F0400EB031327D0043C24F062
:1029100003064FEA940C1E441C1F8E465EF8045BAF
:1029200044F8045FB442F9D10CF1010402F003024F
:1029300003EB840301EB840102F1FF3C4AB10CF18B
:10294000010C013B8C4411F8012B03F8012F614568
:10295000F9D170BD02F1FF3C03469BE72246EBE74D
:102960000148FFF7CDBC00BF8C0900200148FFF7EC
:10297000C9BC00BF8C0900202DE9F84F174600297B
:1029800000F0988007F10B0580460C46FFF7E8FF42
:10299000162D5DD810252A46AF425ED854F8041C87
:1029A00021F003069642A4F1080962DABC4BD3F881
:1029B00008C009EB0600844500F09780D0F804C0F9
:1029C0002CF0010303445B68DB0768D42CF0030C94
:1029D00006EB0C03934247DACB0710D454F8083CBB
:1029E000A9EB030ADAF8043023F003018C44B44461
:1029F000944580F211817318934280F2E880394641
:102A00004046FFF781FC0746E0B154F8043C23F050
:102A100001034B44A0F10802934200F0D280321F20
:102A2000242A00F2F580132A00F2AC8003462246E5
:102A3000116819605168596092689A602146404651
:102A400000F02AFC4046FFF791FF3846BDE8F88FBA
:102A500025F00705002D2A469EDA0C23C8F8003021
:102A600000273846BDE8F88F1E46D0E90223D36020
:102A70009A60731B0F2B22D8D9F8043003F001039E
:102A800033434E44C9F80430736843F00103736064
:102A900040462746FFF76AFF3846BDE8F88FC9076A
:102AA000ADD454F8083CA9EB030ADAF8041021F07D
:102AB0000301A0E7BDE8F84F1146FFF725BCD9F8A0
:102AC000041001F001012943C9F8041009EB0501C4
:102AD0004E4443F001034B60736843F00103083137
:102AE0007360404600F0D8FBD2E7DCF8040020F029
:102AF000030B06EB0B0C05F1100084454DDAC907FA
:102B00003FF57DAF54F8081CA9EB010ADAF8041070
:102B100021F003018B44B34458453FF76CAF57464F
:102B2000DAF80C1057F8080F321F242AC1608860A9
:102B300000F2DB80132A40F2D6802168CAF8081020
:102B40006168CAF80C101B2A00F2DF8008340AF111
:102B500010022168116061685160A16891600AEB00
:102B60000501ABEB050242F0010299604A60DAF818
:102B7000043003F001031D434046CAF80450FFF738
:102B8000F5FE6EE723680360636843601B2A68D81C
:102B900004F1080200F108034AE709EB05029A6014
:102BA000ACEB050343F00103536054F8043C03F01D
:102BB00001031D43404644F8045CFFF7D7FE274657
:102BC0004FE750F8043C23F003031E4451E75746F7
:102BD000DAF80C1057F8080F321F242AC1608860F9
:102BE0004CD8132A48D92168CAF808106168CAF875
:102BF0000C101B2A56D808340AF110021E4623680E
:102C0000136063685360A3689360D1463C4630E725
:102C10002146FFF729FE11E7D0E902135746CB60A2
:102C2000996057F8081FDAF80C30CB60321F242A5D
:102C300099602DD8132A29D92368CAF80830636807
:102C4000CAF80C301B2A42D808340AF11003226853
:102C50001A6062685A60A2689A606646D1463C462D
:102C600007E7A3688360E368C360242A26D004F1E1
:102C7000100200F11003DBE63A46BFE72146384672
:102C80001E46D146FFF7F0FD3C46F2E63B46DEE746
:102C9000214638466646D146FFF7E6FD3C46E8E663
:102CA0003C040020A168CAF81010E168CAF81410AA
:102CB000242A20D010340AF118029FE72369036107
:102CC0006169416104F1180200F11803B0E6A368DC
:102CD000CAF81030E368CAF81430242A21D010341E
:102CE0000AF11803B3E73A4633E721463846FFF7BF
:102CF000BBFD164B33E72269CAF818206269CAF88F
:102D00001C2018340AF1200278E7A168CAF81010D4
:102D1000E168CAF81410242A0DD010340AF1180200
:102D200017E72369CAF818306369CAF81C301834E9
:102D30000AF120038BE72269CAF818206269CAF8F1
:102D40001C2018340AF1200203E700BF3C040020D5
:102D500038B5074D0022044608462A60FEF74EFFAC
:102D6000431C00D038BD2B68002BFBD0236038BD3E
:102D7000CC09002010B50C46B1F90E1000F018FC7B
:102D8000002803DB236D0344236510BDA38923F4CE
:102D90008053A38110BD00BF2DE9F0410C46B1F96D
:102DA0000C101F46CB05054616460BD421F4805166
:102DB000A1813B46B4F90E1032462846BDE8F041E9
:102DC00000F01EB8B4F90E100223002200F06AFBD6
:102DD000B4F90C10EAE700BF10B50C46B1F90E10BB
:102DE00000F060FBA389421C0EBF23F4805343F420
:102DF00080532065A38110BDB1F90E1000F0C6B854
:102E000038B50C46084D8446114620461A46002324
:102E10002B606446FEF7E4FE431C00D038BD2B68EF
:102E2000002BFBD0236038BDCC09002038B5334BD4
:102E30001B6805460C460BB19A6B12B3B4F90C3003
:102E400018079AB225D5216900292DD012F001006A
:102E500007D00020A06060694042A06139B1002025
:102E600038BD950758BF6069A0600029F7D11206E8
:102E700058BF0846F4D543F04003A3814FF0FF301C
:102E800038BD1846FEF7F8FFB4F90C3018079AB2AF
:102E9000D9D4D1062AD5520714D4216943F00803A6
:102EA000A3819AB20029D1D102F42070B0F5007F3D
:102EB000CCD02146284600F00BFBB4F90C30216938
:102EC0009AB2C3E7216B51B104F14002914204D0A0
:102ED000284600F0E1F9B4F90C30002222632169A0
:102EE0000022C4E9001223F02403D7E7092243F0AB
:102EF00040032A604FF0FF30A38138BD0C00002052
:102F00002DE9F047DFF87CA00646DAF80000984685
:102F10000F469146FFF7F4F91B4B1B68D3F8484165
:102F200024B365681F2D26DC5EB96B1C0235DAF808
:102F30000000636044F82570FFF7E4F90020BDE865
:102F4000F08704EB85010123C1F88890D4F888212B
:102F5000AB401A43022EC4F88821C1F80881E4D19D
:102F6000D4F88C211343C4F88C31DEE703F5A67442
:102F7000C3F84841D5E7DAF80000FFF7C3F94FF08E
:102F8000FF30DCE7380400206436000838B5074D10
:102F90000022044608462A60FEF74EFE431C00D07D
:102FA00038BD2B68002BFBD0236038BDCC09002036
:102FB00070B500294BD006460C4610B1836B002B30
:102FC00048D0636ED80734D5B4F90C30002B3ED00E
:102FD0002146304600F052F8E36A054633B1E16914
:102FE000304698470028B8BF4FF0FF35A3891A062E
:102FF0003BD4216B41B104F14003994202D03046E9
:1030000000F04AF900232363616C21B1304600F0DF
:1030100043F900236364FEF7B5FF636E0022DB070C
:10302000A28127D5A06DFFF769F9FEF7B1FF284609
:1030300070BDA3899905CBD4A06DFFF761F9B4F9F0
:103040000C30002BC4D1656E15F0010508D00025A9
:10305000284670BDFEF710FF636ED807B4D4E8E7CA
:10306000A06DFFF74FF9284670BD2169304600F08A
:1030700013F9BEE7A06DFFF745F9D3E7B1F90C20CE
:10308000F8B50C461107074642D4636842F4006263
:10309000002BA28159DDA56A002D54D000233E6883
:1030A0003B6093B212F4805253D1E1690123384658
:1030B000A847421C63D0A389A56A5B0705D563684E
:1030C000C01A236B0BB1E36BC01AE16902460023FF
:1030D0003846A847411C3ED13B68002B3BD01D2BF6
:1030E00001D0162B52D1A3892269226023F40063F8
:1030F00000216160A381216B3E6021B304F1400394
:10310000994202D0384600F0C7F800202063F8BD8D
:103110002669C6B193B2256826609A070CBF636919
:103120000023AD1BA3600CE0D4F824C0E1692B465A
:1031300032463846E047B0F1000CA5EB0C0566447A
:1031400016DD002DF0DC0020F8BDE36B002BA2DCC7
:10315000F9E7206DB1E7B4F90C302269226023F45D
:103160000063A3810022DB046260C4D52065C2E74E
:10317000A38943F040034FF0FF30A381F8BD3B68C3
:10318000002B98D01D2B06D0162B04D0A38943F01A
:103190004003A381F8BD3E60D5E700BF38B50C46BB
:1031A000054608B1836BA3B1B4F90C00B8B1636EE6
:1031B000DB0701D4810515D528462146FFF75EFFC0
:1031C000636EDA07054602D4A3899B050ED528460F
:1031D00038BDFEF751FEB4F90C000028E7D10546D2
:1031E000284638BDA06DFFF78BF8E5E7A06DFFF727
:1031F00089F8284638BD00BFF8B5244F0C4606466E
:10320000FFF7AEFBBA685568C4F57E630F3325F04F
:1032100003052B4423F47F6323F00F03A3F58054AD
:10322000B4F5805F07DB00213046FFF791FDBB68F6
:103230002B44984204D03046FFF798FB0020F8BD9D
:1032400061423046FFF784FD01300DD0104ABB6863
:103250002D1B45F001055D60136830461B1B136094
:10326000FFF784FB0120F8BD00213046FFF770FD19
:10327000BA68831A0F2BDEDD43F001035360054B60
:1032800003491B68C01A0860D5E700BF3C04002052
:103290009809002044080020002961D0F8B50C46A8
:1032A0000646FFF75DFB54F8042C7B4FA4F108059C
:1032B00022F0010105EB010CB868DCF80430604530
:1032C00023F0030300F08B80D207CCF8043032D413
:1032D00054F8082CAD1A1144AA6807F1080082427C
:1032E0006AD00CEB0304D4F804E0EC68D4601EF060
:1032F000010FA26000F0978041F001036B60CCF8F1
:103300000010B1F5007F35D27A68CB084809012159
:10331000013381401143796007EBC30257F8331042
:10332000083AC5E9021247F83350CD603046BDE88F
:10333000F840FFF71BBB0CEB03025268D00710D418
:10334000194407F10800DCF80830834273D0DCF838
:103350000C20DA60936041F001036B606950D0E7A4
:10336000704741F00103B1F5007F44F8043CCCF80C
:103370000010C9D3B1F5206F4FEA512348D28B0911
:1033800003F1390003F13802C300F818FB5808387C
:10339000984259D05A6822F003028A4202D99B68A7
:1033A0009842F7D1D868C5E902308560DD603046C3
:1033B000BDE8F840FFF7DABA0CEB03025268D20717
:1033C00063D40B44DCE90212CA60916043F001024D
:1033D0006A603046EB50BDE8F840FFF7C7BA0B44CF
:1033E000D10707D454F8082CAD1A1344D5E90212BA
:1033F000CA60916043F001026A60284ABD601268A9
:103400009A4293D8264B30461968FFF7F5FE8DE7B0
:10341000142B0AD9542B1FD80B0B03F16F0003F1A7
:103420006E02C300B1E719448DE703F15C0003F1BC
:103430005B02C300A9E741F00103C7E90455C5E9F0
:1034400002006B60695071E779689210012404FAF8
:1034500002F20A437A60A6E7B3F5AA7F06D8CB0B3F
:1034600003F1780003F17702C3008EE740F2545273
:10347000934206D88B0C03F17D0003F17C02C3005C
:1034800083E74FF47E737E227FE741F001036B6098
:10349000CCF800104AE700BF3C0400204808002098
:1034A000C809002038B50C46084D84461146204610
:1034B0001A4600232B606446FEF7C8FB431C00D06D
:1034C00038BD2B68002BFBD0236038BDCC09002011
:1034D0002DE9F0418B890C46990796B008D504F187
:1034E00043030122C4E90432236016B0BDE8F08131
:1034F000B4F90E100029064627DB6A4600F06EF884
:10350000002821DB019D05F47045A5F50055B5FAAD
:1035100085F54FF480686D094FF4006741463046E9
:10352000FEF7F2FEB4F90C30F0B1204AF26343F03A
:103530008003C4F81480A3812060206135BB3B4325
:10354000A38116B0BDE8F081A38913F0800519D0DE
:103550004FF0400841463046FEF7D6FE0025B4F94C
:103560000C302F460028E0D19A05BED423F0030387
:1035700004F1430243F002030121C4E90421A381C1
:103580002260B2E74FF480682F46C7E7B4F90E1007
:10359000304600F039F810B9B4F90C30CFE7A38900
:1035A00023F0030343F001031BB2C8E76D1E0008BC
:1035B00038B50C46084D8446114620461A4600236D
:1035C0002B606446FEF7FCFA431C00D038BD2B6824
:1035D000002BFBD0236038BDCC09002070B50C4611
:1035E000084D03460026204611461C462E60FEF775
:1035F00026FB431C00D070BD2B68002BFBD0236042
:1036000070BD00BFCC09002038B5074D002204462C
:1036100008462A60FEF718FB431C00D038BD2B6813
:10362000002BFBD0236038BDCC090020F8B500BFCB
:10363000F8BC08BC9E467047F8B500BFF8BC08BC93
:043640009E467047EB
:1036440068656C6C6F000000000000000000000062
:103654000102030406070809000000000102030434
:08366400100000200A00000024
:08366C00C4CBFF7F0100000048
:083674004D1E0008E5010008ED
:04367C00C101000880
:1036800001000000100000000024F40010000020E1
:1036900000000000FC02002064030020CC03002096
:1036A000000000000000000000000000000000001A
:1036B000000000000000000000000000000000000A
:1036C00000000000000000000000000000000000FA
:1036D00000000000000000000000000000000000EA
:1036E00000000000000000000000000000000000DA
:1036F00000000000000000000000000000000000CA
:1037000000000000000000000000000000000000B9
:1037100000000000000000000000000000000000A9
:103720000000000000000000000000000000000099
:103730000000000000000000010000000000000088
:103740000E33CDAB34126DE6ECDE05000B0000004D
:103750000000000000000000000000000000000069
:103760000000000000000000000000000000000059
:103770000000000000000000000000000000000049
:103780000000000000000000000000000000000039
:103AB0000000000000000000880900200000000055
:103AC000000000003C0400203C04002044040020CE
:103AD000440400204C0400204C0400205404002026
:103AE000540400205C0400205C04002064040020D6
:103AF000640400206C0400206C0400207404002086
:103B0000740400207C0400207C0400208404002035
:103B1000840400208C0400208C04002094040020E5
:103B2000940400209C0400209C040020A404002095
:103B3000A4040020AC040020AC040020B404002045
:103B4000B4040020BC040020BC040020C4040020F5
:103B5000C4040020CC040020CC040020D4040020A5
:103B6000D4040020DC040020DC040020E404002055
:103B7000E4040020EC040020EC040020F404002005
:103B8000F4040020FC040020FC04002004050020B4
:103B9000040500200C0500200C0500201405002061
:103BA000140500201C0500201C0500202405002011
:103BB000240500202C0500202C05002034050020C1
:103BC000340500203C0500203C0500204405002071
:103BD000440500204C0500204C0500205405002021
:103BE000540500205C0500205C05002064050020D1
:103BF000640500206C0500206C0500207405002081
:103C0000740500207C0500207C0500208405002030
:103C1000840500208C0500208C05002094050020E0
:103C2000940500209C0500209C050020A405002090
:103C3000A4050020AC050020AC050020B405002040
:103C4000B4050020BC050020BC050020C4050020F0
:103C5000C4050020CC050020CC050020D4050020A0
:103C6000D4050020DC050020DC050020E405002050
:103C7000E4050020EC050020EC050020F405002000
:103C8000F4050020FC050020FC05002004060020AF
:103C9000040600200C0600200C060020140600205C
:103CA000140600201C0600201C060020240600200C
:103CB000240600202C0600202C06002034060020BC
:103CC000340600203C0600203C060020440600206C
:103CD000440600204C0600204C060020540600201C
:103CE000540600205C0600205C06002064060020CC
:103CF000640600206C0600206C060020740600207C
:103D0000740600207C0600207C060020840600202B
:103D1000840600208C0600208C06002094060020DB
:103D2000940600209C0600209C060020A40600208B
:103D3000A4060020AC060020AC060020B40600203B
:103D4000B4060020BC060020BC060020C4060020EB
:103D5000C4060020CC060020CC060020D40600209B
:103D6000D4060020DC060020DC060020E40600204B
:103D7000E4060020EC060020EC060020F4060020FB
:103D8000F4060020FC060020FC06002004070020AA
:103D9000040700200C0700200C0700201407002057
:103DA000140700201C0700201C0700202407002007
:103DB000240700202C0700202C07002034070020B7
:103DC000340700203C0700203C0700204407002067
:103DD000440700204C0700204C0700205407002017
:103DE000540700205C0700205C07002064070020C7
:103DF000640700206C0700206C0700207407002077
:103E0000740700207C0700207C0700208407002026
:103E1000840700208C0700208C07002094070020D6
:103E2000940700209C0700209C070020A407002086
:103E3000A4070020AC070020AC070020B407002036
:103E4000B4070020BC070020BC070020C4070020E6
:103E5000C4070020CC070020CC070020D407002096
:103E6000D4070020DC070020DC070020E407002046
:103E7000E4070020EC070020EC070020F4070020F6
:103E8000F4070020FC070020FC07002004080020A5
:103E9000040800200C0800200C0800201408002052
:103EA000140800201C0800201C0800202408002002
:103EB000240800202C0800202C08002034080020B2
:0C3EC00034080020FFFFFFFF000002009C
:0400000508001C557E
:00000001FF
